:020000040800F2
:10000000E0A100101504000855810008276E0008C3
:1000100051810008C324000823D400080000000018
:1000200000000000000000000000000021030008A4
:1000300087250008000000007D0300087590000877
:100040002F0400082F0400082F0400082F040008C4
:100050002F0400082F0400082F0400082F040008B4
:100060002F0400082F0400082F0400082F040008A4
:100070002F0400082F0400082F0400082F04000894
:100080002F0400082F0400082F0400082F04000884
:100090002F0400082F0400082F0400082F04000874
:1000A0002F0400086D9100082F0400082F04000899
:1000B0002F0400082F0400082F0400082F04000854
:1000C0002F0400082F0400082F0400082F04000844
:1000D0002F0400082F0400082F0400082F04000834
:1000E0002F0400082F0400082F0400082F04000824
:1000F0002F0400082F0400082F0400082F04000814
:100100002F0400082F0400082F0400082F04000803
:100110002F0400082F0400087D9100082F04000818
:100120002F0400082F0400082F0400082F040008E3
:100130002F040008412600082F0400082F0400089F
:100140002F0400082F0400082F040008598100081C
:100150002F0400082F0400082F04000815A0000831
:100160002F0400082F0400082F0400082F040008A3
:100170002F0400082F0400082F04000800000000CE
:100180002F0400082F04000800F002F800F0B8F86F
:100190000AA090E8000C82448344AAF10107DA45E2
:1001A00001D100F0ADF8AFF2090EBAE80F0013F07C
:1001B000010F18BFFB1A43F001031847D8830B0047
:1001C00018840B000A444FF0000C10F8013B13F0A8
:1001D000070408BF10F8014B1D1108BF10F8015BA0
:1001E000641E05D010F8016B641E01F8016BF9D193
:1001F00013F0080F1EBF10F8014BAD1C0C1B09D1EA
:100200006D1E58BF01F801CBFAD505E014F8016B5B
:1002100001F8016B6D1EF9D59142D6D370470000ED
:100220000023002400250026103A28BF78C1FBD8FF
:10023000520728BF30C148BF0B6070476E2900F0DD
:100240001C86702900F0D182662919F05CA7652907
:1002500019F059A7672919F056A7612919F055A770
:1002600003681B0A28BF41F08001692900F042821F
:10027000642900F03F82752900F03C826F2901F06B
:100280002281782900F09D82E92901F0BD80E429CE
:1002900001F0BA80F52901F0B780EF2901F01F8144
:1002A000F82900F09C820368DB0928BF41F0800137
:1002B000632901F02C80732901F03180E32901F0DA
:1002C0009F83F32901F0A483002070471FB559F0E4
:1002D00010FF9DE8030000F02FFD00F078FB00F018
:1002E0000BFD04000020002159F0E0FD401C60607F
:1002F0000020002159F0F0FDE0601FBD10B510BDD9
:1003000001F095FC1146FFF7E1FF42F093FD01F08B
:10031000C1FC03B4FFF7F2FF03BC0FF01BFB0000AE
:100320002C4B19680868B0E8F04F80F30988BFF3D8
:100330006F8F4FF0000080F31188704700000000BD
:1003400008480068006880F308884FF0000080F3D8
:10035000148862B661B6BFF34F8FBFF36F8F00DFB3
:1003600000BF00BF08ED00E0DFF80C00016841F4B9
:1003700070010160704700BF88ED00E0EFF3098075
:10038000BFF36F8F134B1A681EF0100F08BF20EDDC
:10039000108A20E9F04F106009B44FF0500080F34C
:1003A0001188BFF34F8FBFF36F8F58F003FB4FF0EF
:1003B000000080F3118809BC19680868B0E8F04FA4
:1003C0001EF0100F08BFB0EC108A80F30988BFF34D
:1003D0006F8F704764020020EFF3058070470000C4
:1003E0000B49D1F800C04A685CF8043B1068184417
:1003F00042F8040B8C4528BFA1F1DC0C8A4228BFCF
:10040000A1F1DC02C1F800C04A6020F00040704752
:1004100078A101200948804709480047FEE7FEE728
:10042000FEE7FEE7FEE7FEE7FEE7FEE7FEE7FEE7A4
:1004300004480549054A064B7047000059910008D9
:1004400089010008E0810010E0A10010E091001097
:10045000E09100107047000010B500F04DFC001D49
:1004600010BD00BF499A050070B5064600F040FC7B
:10047000056806F10B0020F00704B4429CBF002081
:1004800070BD2B466A68BAB11068A04210D304F15F
:10049000080188423CBF5068586007D35168101962
:1004A00041601168091B016058601460101D70BD27
:1004B00013465268002AE7D12146284600F028FC5E
:1004C0000028DED170BD70B50446051F00F010FC99
:1004D0000068002C14BF446870BD002C18BFAC42EB
:1004E0003CBF20466468F8D301680A18AA4218BFC6
:1004F000456003D12A680546114401602868411906
:10050000A1421CBF6C6070BD6168696021680844CD
:10051000286070BD53EA020C00F069802DE9F04BB1
:100520004FF00006002B1FBFB3FA83F503FA05F462
:1005300024FA05F65E4012BF1643B2FA82F502FABB
:1005400005F4C5F120051EBF22FA05FC44EA0C049F
:10055000203556EA044C4FEA144418BF641C4FF08F
:1005600000084FF00009904271EB030C39D30029C9
:1005700019BFB1FA81F701FA07F6B0FA80F700FA6D
:1005800007F6C7F120071EBF20FA07FC46EA0C0653
:100590002037B6FBF4FCA7EB0507103F07F01F0B55
:1005A000CBF120060CFA0BFB2CFA06F644BFB3463F
:1005B0000026202FA4BF5E464FF0000B5BEA060C1E
:1005C00008BF4FF0010B19EB0B09ABFB027C48EBAA
:1005D0000608C01B06FB02CC0BFB03CC71EB0C0125
:1005E000C1E70B46024641464846BDE8F08B13B5CD
:1005F0004FF000004FF00001AFF30080BDE81C4059
:10060000704700000A46014900F08EBE2400001029
:100610000FB4044910B503AA029800F085FE10BC7F
:100620005DF814FB240000100FB41CB5084B06AA9B
:100630007B4469460090059800F047FE0446002080
:10064000694600F055FE20461CBC5DF814FB000016
:10065000BD0C000070B5044685690068C10601D56F
:10066000302600E02026C00707D070BDD4E9012164
:1006700030469047206A401C20626D1EF6D570BD42
:1006800070B5044685690078C00707D170BDD4E90C
:10069000012120209047206A401C20626D1EF6D563
:1006A00070BD70B50C460546012A05D02878800635
:1006B00000D5EA69002302E0012305E05B1C9342B8
:1006C00002D2E05C0028F9D1A869E618C01AA86136
:1006D000286A184428622846FFF7BCFF04E0D5E9E1
:1006E000012114F8010B9047B442F8D32846FFF7D4
:1006F000C7FF70BD2DE9F04106460024106875293A
:10070000314616A510D000F04DFB002802DA404219
:1007100013A507E031688A0701D512A502E0490751
:1007200004D511A5012401E000F045FB00210A22B7
:1007300006F1240709E0B0FBF2FCB0FBF2F302FB88
:100740001C00303078541846491C0028F3D1234649
:100750002A463046BDE8F04100F036BB00000000FC
:100760002D0000002B00000020000000F0B40D461A
:100770000188090502D5214C7C4402E01F4C7C44D1
:100780000E34002100F1240608E002F00F071209E0
:10079000E75D42EA03721B097754491C52EA0307DA
:1007A000F3D102780023120704D5702D06D009B1C9
:1007B000022311342246F0BC00F006BB01231034A2
:1007C000F8E770B504460D462146106800F0F3FACC
:1007D000024629462046BDE870400023C6E7D21DE8
:1007E00022F00703D3E90023C0E70368126843F04F
:1007F000200303600823C3610023B7E7C06E0B002A
:100800002DE9F05F894604464FF0000ADFF874B125
:10081000FB44C0F820A02046E1688847002874D037
:10082000252806D0D4E901219047206A401C206287
:10083000F1E700265F462046E16888472028054604
:1008400007DB312D05D2781910F8200C08B10643CA
:10085000F1E7B00701D526F00406C4F81CA0002774
:10086000C4F818A02A2D09D028460CF04FFF38B341
:1008700004EB8708303DC8F8185019E059F8041BFC
:10088000204604EB87029161E1688847012F054605
:1008900018D1E069002820DA26F020061DE0D8F8FB
:1008A000180000EB800005EB40003038C8F8180055
:1008B0002046E168884705460CF028FF0028EED165
:1008C000012F0AD02E2D08D12046E16888477F1CD1
:1008D0000546022F46F02006C4DBA069002803DA93
:1008E000404246F00106A061F00701D026F0100654
:1008F0006C2D0BD0682D09D04C2D39D06A2D35D0F8
:10090000742D35D07A2D33D016E038E0E1682F46CB
:1009100020468847B842054609D16C2F26D04FF4AF
:100920008060E168064320468847054604E06C2F56
:100930001AD04FF4807006430DB3A5F14100192879
:1009400002D8203546F400664A46294620462660ED
:100950004E46FFF773FC80B101280BD0F61D26F040
:10096000070000F1080956E74020E4E78020D8E7B7
:100970000020D6E706F104094DE7284652E7206A31
:10098000BDE8F09F506E0B0070B5064600F0B8F958
:100990000468054630460A22002100F0ABFD2C60B9
:1009A00070BD00000B4910B5A1F17C020A4CC2E9F0
:1009B0003712372106E000EB104342F82130074B95
:1009C00000FB03400B1EA1F10101F4DC10BD01206E
:1009D000E8E7000018A10120E119D666CD0D01005D
:1009E00000F0C0BD30B505460B462A4613F8014B52
:1009F00012F8010B08B1A042F8D01CB1002802D0B7
:100A00006D1CF1E7284630BD40EA010310B59B0795
:100A10000FD1042A0DD310C808C9121F9C42F8D068
:100A200020BA19BA884201D9012010BD4FF0FF3019
:100A300010BD1AB1D30703D0521C07E0002010BD2F
:100A400010F8013B11F8014B1B1B07D110F8013BBB
:100A500011F8014B1B1B01D1921EF1D1184610BD9C
:100A600040EA0103024630B59B0710D14FF0013434
:100A700000E008C208C91D1B9D4315EAC41FF8D039
:100A800013F0FF0102F8011B0DD01B0AF8E711F863
:100A9000013B002B02F8013B05D011F8013B002B74
:100AA00002F8013BF3D130BD10B5431C02E010F851
:100AB000011B71B18107FAD14FF0013202C88C1AC3
:100AC0008C4314EAC211F9D0C01A0A0603D0C01E22
:100AD00010BDC01A10BD0A0401D0801E10BD09024D
:100AE000FCD0401E10BD032A40F2308010F0030CF1
:100AF00000F0158011F8013BBCF1020F624498BF71
:100B000011F801CB00F8013B38BF11F8013BA2F10D
:100B1000040298BF00F801CB38BF00F8013B11F088
:100B2000030300F02580083AC0F0088051F8043B28
:100B3000083A51F804CBA0E80810F5E7121D5CBF95
:100B400051F8043B40F8043BAFF30080D20724BFC8
:100B500011F8013B11F801CB48BF11F8012B24BF5C
:100B600000F8013B00F801CB48BF00F8012B7047AB
:100B700010B5203AC0F00B80B1E81850203AA0E838
:100B80001850B1E81850A0E81850BFF4F5AF5FEA6C
:100B9000027C24BFB1E81850A0E8185044BF18C91F
:100BA00018C0BDE810405FEA827C24BF51F8043BC6
:100BB00040F8043B08BF7047D20728BF31F8023B1A
:100BC00048BF11F8012B28BF20F8023B48BF00F8AE
:100BD000012B70474FF000020429C0F0128010F082
:100BE000030C00F01B80CCF1040CBCF1020F18BF09
:100BF00000F8012BA8BF20F8022BA1EB0C0100F09C
:100C00000DB85FEAC17C24BF00F8012B00F8012B6E
:100C100048BF00F8012B70474FF0000200B51346A3
:100C200094469646203922BFA0E80C50A0E80C500C
:100C3000B1F12001BFF4F7AF090728BFA0E80C50BD
:100C400048BF0CC05DF804EB890028BF40F8042BB6
:100C500008BF704748BF20F8022B11F0804F18BF23
:100C600000F8012B704700004FF0013C50F8042BB6
:100C700051F8043B9A4221D1A2EB0C03934313EAAF
:100C8000CC1317D150F8042B51F8043B9A4215D1DC
:100C9000A2EB0C03934313EACC130BD150F8042BB3
:100CA00051F8043B9A4209D1A2EB0C03934313EA97
:100CB000CC13DBD04FF00000704700BFD01A01BA50
:100CC000B1FA81F101F0180122FA01F0CB40C1F133
:100CD0002001DBB2C0B2C01A2CFA01F3D11A914341
:100CE00011EAC311E6D170477047704770477047EB
:100CF0000048704788A1012000487047A0A101204A
:100D00000048704780A101207047704770477047C6
:100D100038B504460A4600206946AFF30080002833
:100D200008BF38BD02460099204600F041FC012072
:100D300038BD012000F056BFF8B5AFF3008005467E
:100D400000200C46102000BF0646A819A0420DD96D
:100D5000324669460020AFF30080070008BF00F06C
:100D600041FF0098A04218BF0546C419FFF7C0FF15
:100D700005600746F01D20F007004619284600F0E0
:100D80000AF8B44208BFF8BDA21B31463868BDE876
:100D9000F84000F00DBC00210160C0E9011070476F
:100DA0001020704709684A0501D540B27047C9054F
:100DB000FCD500B2704709684A0501D5C0B270473A
:100DC000C905FCD580B270472DE9F0470D4699461C
:100DD0009246044600F124080168880604D5E069BB
:100DE00021F01001216000E00120A84201DD471B35
:100DF00000E00027A1697A1902EB0900081AA06136
:100E00002078C00602D42046FFF724FC002608E024
:100E1000D4E901211AF806009047206A401C761C8C
:100E200020624E45F4DB2078C0060AD52046FFF745
:100E300011FC06E0D4E9012130209047206A401CD3
:100E40002062381EA7F10107F4DC07E0D4E9012194
:100E500018F805009047206A401C2062281EA5F162
:100E60000105F3DC2046FFF70BFC2078000602D5D5
:100E70000220BDE8F0870120FBE711680268006AE4
:100E8000530501D508700AE0D30501D5088006E0B6
:100E9000130603D5C217C1E9000200E00860012073
:100EA000704770472DE9FF4F0C461E464FF0FF3745
:100EB0008BB0D2E90001DDF860800A908A46C1F368
:100EC0000A5505B93D46002108464FF00000BAF129
:100ED000000F00F4400005DA00EB80004FF4400101
:100EE00001EA50004FEA9059B9F1010F00DDB9460F
:100EF0000A9850EA4A000ED044F61050A5F2FF3589
:100F000045432F14B8F1000F1ED07542291E1EDD77
:100F1000C9F100021CE0B8F1010F4FF0000001D050
:100F2000302103E0F24305E02154401CB042FBDBDA
:100F300030460022002121540B99C1F80880C1E9F4
:100F400000200FB0BDE8F08FBD1B6D1CDEE74A46E8
:100F500000DA694206A800F0AFFD06AB93E807008F
:100F600003AB83E8070050460A9900F0E2FE8DE8E3
:100F70000700A0F500501F3800900398002D0ADDEF
:100F800042F21F014A460844002303A90390684621
:100F900001F04BF909E0A0F500504A461F38002344
:100FA00003A90390684601F055F98DE80700000495
:100FB000000C03D04FF0FF30410800E01046B8F1BC
:100FC000000F03D00022009215461EE0751E05D4C6
:100FD00000F008FB303262556D1EF9D5B346012290
:100FE000084302D000227F1C04E02078302801D181
:100FF00000227F1E002A099784D01DE0112D07DAF8
:1010000000F0F0FA303262556D1C50EA0102F5D161
:10101000084302D00098C8B10EE00021681E05E028
:10102000235C625C63542254401E491C8142F7DBFE
:10103000AB46A81B401E0990002004F80B000B983B
:10104000099AC0F80880C0E9002B7AE711264FF012
:10105000000857E72DE9F04F88460446D21D22F0DC
:10106000070191B0D1E90001CDE90A010CF0F2FAD3
:1010700002460B98C00F01D02D2007E020688107A1
:1010800001D52B2002E0202101EAC000032A0990AB
:1010900001D0072A05DB03464146204600F066FCE6
:1010A0000BE12078800601D5E06900E00620B8F168
:1010B000650F814606D0B8F1660F18D0B8F1670FFA
:1010C00070D131E00020B9F1110F009001DB112344
:1010D00001E009F101030AAA01A90CA8FFF7E2FE49
:1010E000DDE90C70002609F10105834647E0012087
:1010F0004B4600904FF000470AAA01A90CA8FFF741
:10110000D1FEDDE90DB00C995D46002610B909F15C
:1011100001000D18B9EB050003D4C0F1FF3609F149
:101120000105A5EB09002BE0B9F1010F01DA4FF041
:1011300001090020B9F1110F0090484601DD11238B
:1011400000E003460AAA01A90CA8FFF7ABFEDDE9FF
:101150000C704D4600268346207800070AD4AB4524
:1011600000DA5D4601A8012D04DD411911F8011CCA
:10117000302907D04F4502DA17F1040F04DA0120B5
:1011800082460FE06D1EEEE7002F02DCED1B3E44B1
:1011900003E0781CA84200DD7D1CB81B00F1010AA9
:1011A0004FF000472078000703D4AA4501DB4FF039
:1011B000FF3A0021B7F1004F0DF143088DF84310BD
:1011C00024D002202B23002F01DA7F422D230A2175
:1011D000021EA0F1010000DC5FB197FBF1FC97FB60
:1011E000F1F201FB1C7C17460CF1300C08F801CD24
:1011F000EEE7A8F1010003702188090501D545211A
:1012000000E06521A0F1010800F8011C09980FA970
:10121000A1EB0807FF1D00B10120411901EBEA70A5
:10122000A1693844081A401EA0612078C00602D483
:101230002046FFF70FFA099828B1D4E90121904719
:10124000206A401C20622078C00622D52046FFF785
:1012500001FA1EE0002E04DBB34502DD01A8805D2B
:1012600000E03020D4E901219047206A401C206230
:10127000761CAAF101005FEA000A0AD1FFF73CFDE3
:10128000C0680168405CD4E901219047206A401C95
:101290002062281EA5F10105DCDC07E0D4E901216C
:1012A00018F8010B9047206A401C2062381EA7F1F5
:1012B0000107F3DC2046FFF7E3F9032011B041E614
:1012C00001694A1C02610878704700B58FB0CDE90A
:1012D00001310021059105497944CDE903101146FA
:1012E0006846FFF78DFA0FB000BD0000E5FFFFFF75
:1012F0000A6802F8010B0A60704710B5436913B120
:10130000AFF3008001E0FFF7CCF9012010BD1278A7
:1013100000F124010A7000224A700122EDE71168F1
:101320004FF0FF32E9E70000074B70B50D467B44F4
:10133000FFF7CBFF0446284600F030FC10B14FF019
:10134000FF3070BD204670BDA7F501002DE9FF5F9D
:1013500015468A460446DFF8AC80F8440027D8E9F1
:1013600000103E46CDE9001010E03AF816106A462B
:1013700002A800F017FC411C07D02178890603D58C
:10138000E269391891420DD80744761C207880060E
:1013900002D5E069B84205DDAE42E6DB3AF8160058
:1013A0000028E2D1A069C01BA0612046FFF752F9D6
:1013B000D8E90010CDE90010002017E03AF8181025
:1013C0006A4602A800F0EEFBB0F1FF3F81460BD069
:1013D00000250DF1080B05E0D4E901211BF80500FB
:1013E00090476D1C4D45F7D308F10100B04280468F
:1013F000E4DB206A384420622046FFF741F9BDE86B
:10140000FF9F00001A630B002DE9F0418046D21DBA
:1014100022F007020025D2E90002F52915A614D012
:10142000011E72F1000106DA0023D0EB030063EB2A
:10143000020211A608E0D8F800108B0701D50FA60C
:1014400002E0490701D50EA601251146002408F146
:10145000240704E000F0C6F830323A55641C50EA24
:101460000102F7D12B46324621464046BDE8F04105
:10147000FFF7AABC000000002D0000002B000000B8
:101480002000000030B4002100F1240408E002F044
:101490000705D208303542EA4372DB086554491C1F
:1014A00052EA0305F3D10468002310A2250707D5EB
:1014B000A40600D421B1C46901230DA2641EC46135
:1014C00030BCFFF781BC10B5044621461068FFF719
:1014D00072FC02462046BDE810400023D2E7D21D30
:1014E00022F00701D1E90023CCE700000000000052
:1014F000300000002DE9F04791460F468046044633
:10150000002614F8015B2DB1FEF7A6FF0068405DD0
:10151000C007F6D12B2D02D02D2D18D0641E4A46BF
:101520003946204600F078FA27B13968A14201D146
:10153000C7F800804FF0020471050BD54042002827
:1015400003DDFFF7DDFB0460A007BDE8F08746F48C
:101550008066E4E70028F8DAFFF7D2FB04606FF05A
:101560000040F2E72DE9F04115460E46040002D195
:101570002C6804B90BA4204600F04BFB04442078EF
:1015800070B127463146384600F033FB04442078DA
:1015900010B1002004F8010B38462C60BDE8F08142
:1015A0000027F9E7000000000048704780A10120F3
:1015B000034640688C46002818BF88423CBF03465B
:1015C0004068F8D318681844884207D00CF103002B
:1015D00020F00700001D411A521A0146081D0A603A
:1015E000FEF771BF30B5B0F10A024FEA900E71F10B
:1015F00000034EEA817EB0EB0E0061EB91014FEAF1
:10160000101E4EEA017E10EB0E0041EB11114FEA65
:10161000102E4EEA016E10EB0E0041EB11214FEA45
:10162000104E4EEA014E10EB0E0041EB11414018F6
:1016300041F100014FEAD00040EA41704FEAD10188
:1016400010EB80054FEA810444EA907444EB0104F6
:101650006D1944EB0404521BA3414FF0000348BF33
:101660000A3200D530BD401C41F1000130BD000000
:101670002DE9F04F04460D46D21D22F0070089B037
:10168000D0E90097484639460BF0E4FF0246F80FD0
:1016900001D02D2307E02068810701D52B2302E02C
:1016A000202101EAC0038DF820300BB1012000E0B9
:1016B0000020032A824601D0072A04DB294620465F
:1016C00000F054F93FE12078800601D40D2500E0B8
:1016D000E569C7F30A560D2D49DA00214FEA175B79
:1016E00008464FF00000002F00F4400007DA00EB3E
:1016F00080004FF4400100EBD07001EA60008115DA
:10170000012901DD4FF0FF3100224FEA850CBCF1C9
:10171000180F06D31346ACF118004FF08052C240A8
:1017200003E04FF4801323FA0CF30CF10C0CBCF122
:10173000200F04D3ACF1200C09FA0CF001E007FAF9
:101740000CF000294FF0004801DD18B90FE00ED170
:1017500040450CD319EB02095F4121B9404502D144
:101760009F4329EA0209BBEB175F00D0761C208853
:10177000000502D57B48784402E07A48784419385D
:1017800008AA302302F80A30037C0AF10101002E76
:101790000AF1020A53546A4602DC4FF0300101E0BC
:1017A0004FF031014FF001088DF8001002D0A6F281
:1017B000FF3603E059EA470100D06B4E002D02DCF2
:1017C0002178090704D54FF002082E218DF8011069
:1017D000C44600210BE0C7F303433F01C35C491C2F
:1017E0006D1E02F80830052908F1010801DA002D04
:1017F000F1DC00210CE000EB1973491C1B786D1E15
:10180000082902F808304FEA091908F1010801DA3D
:10181000002DF0DC21688B0602D516E0A8F1010846
:10182000E04505DD02EB080313F8013C302BF5D051
:10183000B8F1000F09DD02EB080313F8013C2E2B71
:1018400003D1090701D4A8F10108002D05DD3E21CF
:1018500002F808106D1E08F10108407C002E02F805
:10186000080008F1010804DA2D20764202F8080089
:1018700002E02B2002F808000A214FF47A70864219
:1018800008F101080BDB96FBF0F3303302F8083067
:1018900096FBF0F308F1010800FB136601E0642EEB
:1018A0000CDB642096FBF0F3303302F8083096FB33
:1018B000F0F308F1010800FB136601E00A2E06DBD5
:1018C00096FBF1F0303002F8080008F1010896FBB1
:1018D000F1F001FB1060303002F80800A16908F156
:1018E000010808EB050202EB0A00081AA061207843
:1018F000C00602D42046FEF7ADFE216A08AE01EB19
:101900000A00206204E0D4E9012116F8010B904797
:10191000BAF1010AF7D22078C00602D52046FEF7B8
:1019200099FE6E4609E016F8010B3E280FD0D4E967
:1019300001219047206A401C2062B8F10108F2D2D0
:101940002046FEF79DFE09B00320BDE8F08F206A17
:101950002844206203E0D4E90121302090476D1E25
:10196000EBD3F8E7195F0B0002FCFFFF2DE9F04114
:101970001F46044603260168072A01F4006004DBC1
:1019800008B116A505E016A503E008B115A500E00D
:1019900015A521F010002060A069C01EA0610FB144
:1019A000401EA0612046FEF755FE4FB1D4E901214B
:1019B00038469047206A401C2062C01C206206E026
:1019C000206AFAE7D4E9012115F8010B9047761E49
:1019D000F8D22046FEF754FEBDE8F0814E414E009D
:1019E0006E616E00494E4600696E660010B543692F
:1019F00013B1AFF3008001E0FFF7A8FC012010BD98
:101A0000128800F1240182840022C2840122EDE7C1
:101A100011684FF0FF32E9E72DE9F05F8246154685
:101A20008B4600270AF10104B9460078302801D01E
:101A30009DB113E014F8010B0127782803D0582832
:101A400001D045B10AE00DB1102D07D1002714F8DF
:101A5000010B102502E0082500E00A250026B0460B
:101A60000EE005FB080005FB06F101271FFA80F8D0
:101A700001EB1046B6F5803F00D3B94614F8010BD0
:101A8000294600F0F9F80028EBDABBF1000F05D089
:101A90000FB1641E00E05446CBF80040B9F1000FCE
:101AA00006D0FFF72DF902210160C81EBDE8F09FA6
:101AB00048EA0640FAE700002DE9F047814616465D
:101AC0008AB0354878440DC88DE80D003248784416
:101AD000801C03AC0DC884E80D0041F69B3008441F
:101AE000372190FBF1F290FBF1F5A5F1800501FBA8
:101AF00012041B3C02D56442012000E00020DFF804
:101B000098A080460027FA44AAF1BE0A0EE0E0073A
:101B10000AD03246684607EB470101230AEB8101F0
:101B200000F098FB8DE8070064107F1C002CEED1BC
:101B3000194F7F44AE3F19E0E80715D007EB0410BA
:101B40000DF1180A90E80E008AE80E00C068F04215
:101B500001D1981908903246012306A903A800F084
:101B600079FB03AB83E807006D10641C002DE3D103
:101B70004FF0010332466946B8F1000F03A802D0C6
:101B800000F053FB01E000F065FBC9E90001C9F872
:101B900008200AB0BDE8F0875C5C0B00007B00F019
:101BA0008000704770B516460C460546FEF754FC9B
:101BB000036893F80101012806D0FF2C0FD8185DA7
:101BC00068B101202C7070BDD3F807013246214660
:101BD00003F2071303442846BDE8704018474FF04E
:101BE000FF3070BD10B500F063F8BDE8104000F0A4
:101BF0005AB830B503461D781DB10A4603E0AC4221
:101C000001D1181A30BD12F8014B002CF7D15B1C22
:101C1000F1E730B503461D783DB10A4612F8014B95
:101C20001CB1AC42FAD15B1CF5E7181A30BD754601
:101C3000FFF7BAFCAE4605006946534620F00700A0
:101C4000854618B020B5FEF7F3FBBDE820404FF005
:101C500000064FF000074FF000084FF0000B21F096
:101C60000701AC46ACE8C009ACE8C009ACE8C00963
:101C7000ACE8C0098D4670473A2800D2303820F0D1
:101C80002002412A01D3A2F13700884201D34FF04C
:101C9000FF30704710B50446AFF300802046BDE822
:101CA0001040FEF736BB002801D00DF053BE704740
:101CB00010B5012805D0002103A000F021F8012073
:101CC00010BD09A1F8E7000053494752544D454D56
:101CD0003A204F7574206F662068656170206D65CD
:101CE0006D6F7279000000003A2048656170206DC8
:101CF000656D6F727920636F7272757074656400C0
:101D000070B505460C460A2000E06D1C0DF024FE5F
:101D100035B128780028F8D102E0641C0DF01CFED3
:101D200014B120780028F8D1BDE870400A200DF0E9
:101D300013BE5FEA400C08BF91F0000F4FEA8C23FE
:101D40004FEAC12243EA51514FEA1C5018BF00F537
:101D5000F0404FEA300018BF41F000415FEA6C5C90
:101D600000F02980BCF1FF3F08BF40F08040704781
:101D7000130C06BF12044FF0100C4FF0000C130EA2
:101D800004BF12020CF1080C130F04BF12010CF176
:101D9000040C930F04BF92000CF1020CD30F04BF8C
:101DA00052000CF1010C11464FF00002A0F11F008F
:101DB000A0EB0C00704711F0004F08BF704731F0E6
:101DC00000413FF4D5AF0B0C06BF09044FF0100CD7
:101DD0004FF0000C0B0E04BF09020CF1080C0B0FA6
:101DE00004BF09010CF1040C8B0F04BF89000CF136
:101DF000020CCB0F04BF49000CF1010CCCF1200305
:101E0000A0EB0C0022FA03F302FA0CF241EA030100
:101E100000F10100704720F07F4C80EA030023F0BE
:101E20007F47ACEB070303F57C5300F0004003F160
:101E3000FF032DE980494FEA154B09B44FEA1443DB
:101E400025EA0B4E24EA03480FF2042606EB13277B
:101E500049083E785FEA320203FB0667C7F50007D0
:101E600007FB06F64FEA54374FEAD64606F102065C
:101E700007FB066CCCF1005C4FEA1C472CEA074CD0
:101E800007FB06F40CFB06F504EB15464FEA961625
:101E900034BF00204FF000404FEAD13706FB07FC6B
:101EA0004FEA1C4C0CFB0BF7D21B03FB0CF761EB4E
:101EB00007010CFB0EF7B0EB074072EB17420CFB6F
:101EC00008F734BFA2EB0742B2EB074261EB1741C0
:101ED0004FEA0C444FEA910706FB07FC4FEA1C4C03
:101EE0000CFB0BF7B0EBC74072EB573203FB0CF760
:101EF00034BFA2EBC742B2EBC74261EB57310CFBD8
:101F00000EF7B0EBC70072EB57720CFB08F734BF4B
:101F1000A2EBC702B2EBC70261EB5771039F4FEA16
:101F2000816141EA921104EBCC044FEAD1374FEAC8
:101F3000826206FB07FC42EA90124FEA80604FEA99
:101F40001C4C0CFB0BF7D21B03FB0CF761EB0701DE
:101F50000CFB0EF7B0EB074072EB17420CFB08F7D7
:101F600034BFA2EB0742B2EB074261EB17414FEAE5
:101F70008C554FEA910704EB9C2406FB07FC4FEAC3
:101F80001C4C0CFB0BF7B0EBC74072EB573203FB5A
:101F90000CF734BFA2EBC742B2EBC74261EB57313B
:101FA0000CFB0EF7B0EBC70072EB57720CFB08F797
:101FB00034BFA2EBC702B2EBC70261EB577115EB5E
:101FC0004C254FEA816141EA92114FEA82624FEA61
:101FD000D13742EA901206FB07FC44F100044FEAB5
:101FE00080604FEA1C4C0CFB0BF7D21B03FB0CF779
:101FF00061EB07010CFB0EF7B0EB074072EB1742E9
:102000000CFB08F734BFA2EB0742B2EB074261EBCF
:10201000174115EB1C154FEA813141EA92414FEA15
:10202000823242EA90424FEA80304FEA0C7644F125
:10203000000448EA03434EEA0B484FF0000EB2EBAF
:10204000080C71EB030724BF624639464EEB0E0EB7
:102050004FF0000B0018524149414BEB0B0BB2EB18
:10206000080C71EB03077BF1000B24BF6246394675
:102070004EEB0E0E4FF0000B0018524149414BEB56
:102080000B0BB2EB080C71EB03077BF1000B24BFC9
:10209000624639464EEB0E0E51EA020718BF46F073
:1020A000010616EB0E7655F1000254F1000103D53E
:1020B000BDE88901BDE80088BDE88901BDE80048A8
:1020C000B619524141EB0101A3F101037047808031
:1020D0007F7E7D7C7B7A7978777676757473727182
:1020E00071706F6E6E6D6C6C6B6A6A69686867663A
:1020F00066656464636362616160605F5F5E5E5DCC
:102100005D5C5C5B5B5A5A5959585857575656553F
:1021100055555454535352525251515050504F4FA1
:102120004F4E4E4D4D4D4C4C4C4B4B4B4A4A4A49F1
:102130004949484848474747474646464545454434
:102140004444444343434342424242414141002BC1
:102150009C4630D477002BD01CB54FEA370703B428
:102160004FF010004FF01001BAF1000F06D0BCF193
:10217000000FDCBF40F0080040F008014FF0000005
:102180000FBCBDE810400BF1010BBBF1010F08BF04
:102190005FEA170722BF12F1010211F101014FF0AE
:1021A000004143F1000300F0004043EA00007047A3
:1021B000F9D35708D0E746EA064613F1400F4FEA35
:1021C00016461FDD13F1200FDFBF16430A4600211C
:1021D00020335B42BED0C3F1200746EA064602FA2E
:1021E00007F74FEA164646EA0706C3F1200722FA28
:1021F00003F201FA07F721FA03F14FF0000342EA74
:102200000702A7E746EA020646EA06464FEA1646EE
:1022100046EA0106BCBF46EA0646360C4FF000030C
:102220004FF000024FF0000194E72DE9804C9A46F0
:10223000934670B491E8380007C831EA400C48BFB3
:1022400034EA430C03D5FFF7E6FDFFF780FFF0BC4F
:10225000BDE8008C2DE9804C9A46934670B491E815
:10226000380007C810F0804F08BF13F0804F03D12B
:1022700000F005F8FFF76BFFF0BCBDE8008C20F024
:102280007F4780EA030023F07F4C07EB0C03A3F5A4
:102290007C5300F00040A3F1FE0392F0000F00F029
:1022A000B38095F0000F00F077802DE901494FEAE7
:1022B00011404FEA144621EA004800FB06FC24EADC
:1022C000064708FB06F607FB08F800FB07F718EBC4
:1022D00006484CEB164C4FEA124B18EB07484FEAF6
:1022E00015464CEB174022EA0B4E0BFB06FC25EA89
:1022F00006470EFB06F607FB0EFE0BFB07F71EEB71
:10230000064E4CEB164C4FF000061EEB074E4CEB06
:10231000174B18EB0B0840F1000018EB0E0B58EBB5
:10232000000840F100008F1A4FF000013CBFC94384
:10233000661B14BFB5EB040C00213CBFC943F61B60
:102340004FEA17444EEA8E0E27EA04454FEA1C472F
:1023500004FB07622CEA074C05FB07F70CFB05F6AC
:1023600004FB0CFC16EB074642EB174216EB0C463F
:1023700042EB1C421BEB060658EB0202414146EAC7
:102380009E0601D5BDE80189B619524141EB010114
:10239000A3F10103BDE801894FEA14454FEA114753
:1023A00024EA054621EA074C05FB07F406FB07F77C
:1023B0000CFB06F105FB0CFC11EB074144EB174449
:1023C0004FEA124711EB0C4144EB1C4422EA074C44
:1023D00005FB07F206FB07F70CFB06F605FB0CFCFA
:1023E00016EB074642EB174216EB0C4642EB1C4538
:1023F0006A1854F1000148BF7047B619524141EBC9
:102400000101A3F10103704795F0000F37D04FEAA7
:1024100011424FEA144721EA024624EA074C02FB24
:1024200007F106FB07F70CFB06F402FB0CFC14EBB0
:10243000074441EB17414FEA154714EB0C4441EBBD
:102440001C4125EA074C02FB07F506FB07F70CFBCE
:1024500006F602FB0CFC16EB074645EB174516EBA0
:102460000C4645EB1C42121951F1000148BF704760
:10247000B619524141EB0101A3F1010370474FEA44
:1024800014454FEA114724EA054621EA074C05FBAB
:1024900007F106FB07F70CFB06F24FF0000605FB01
:1024A0000CFC12EB074241EB174112EB0C4251EBD3
:1024B0001C4148BF7047921841EB0101A3F1010391
:1024C000704700BFFEE7000010B50446DCB11048BD
:1024D000007820700E484088001260700C488078A8
:1024E000A0700120E0700A48407920710848807986
:1024F00060710521601C11F0D1F8A0710448007AC8
:10250000E071082010BD03A0FEF782F80020F9E773
:102510002400002043726561746544617461204544
:1025200072726F72210D0A000146002200BF05E0A1
:10253000002301F5617040F82230521C0F2AF7D3B6
:10254000002204E0002301F58E708354521CB2F582
:10255000007FF7D3002008704870012088700020A9
:10256000C1F8C40301230B7640238B7100234B7603
:1025700081F81C33012381F81D33002381F81F33B8
:1025800081F81E3370477047016801F580518969F1
:1025900021F00202016801F580518A6170470168EB
:1025A00001F58051896941F00202016801F580510D
:1025B0008A617047016801F58051896921F40052F0
:1025C000016801F580518A617047016801F5805109
:1025D000896941F40052016801F580518A617047B0
:1025E00008B508490968C9084FF47A72B1FBF2F1DD
:1025F0004143009100BF00BF00994A1E009200298C
:10260000F9D108BD2000001038B504460020009024
:10261000206800F58050806940F48011206800F542
:1026200080508161206800F5805080690090012011
:10263000FFF7D6FF0099206800F58050816138BD12
:1026400010B5024800F022FD10BD00006C340020DF
:1026500030B503461479557944EA0520084C0C44FA
:102660002064D4782406957844EA0544557844EAF1
:102670000524157844EA0500014C0C44606430BD23
:102680000080024070B5AEB004460E46002526B16B
:102690004FF40061E160C900A16000201190129028
:1026A0001390149015901690E06918B94FF480605B
:1026B000179001E0002017904FF400701890002050
:1026C00019901A901B901C901D9040201E90002085
:1026D0001F90209021902290239024902590269066
:1026E000802027900020289029902A902B902C90D1
:1026F0002D902068056871480540DDE91101084307
:102700001399084314990843A1680843159908438D
:1027100016990843E1680843179908431899084334
:10272000199908431A9908431B99084305432068DF
:10273000056020680568012000F00EFB2068056038
:10274000DDE91C0108431E9908431F99084320999D
:102750000843219908432299084323990843216893
:10276000486020684568012000F0F6FA206845605E
:1027700024982168886025982168C8602068856948
:102780004FF641700540DDE9261040EA01402899E6
:102790000843299908432A9908432B99084305437C
:1027A0002068856120688569012000F0D5FA2068DD
:1027B0008561DDE92C0108432168C8612068C5698D
:1027C000012000F0C9FA2068C561002001904FF097
:1027D00000700290002003904FF40010049000203D
:1027E000059006900790089004200990C0050A9073
:1027F00040120B9080010C9040120D9080200E90A2
:1028000000200F901090206800F5805085692C48BA
:102810000540DDE901010843039908430499084391
:1028200005990843069908430799084308990843FE
:10283000099908430543206800F5805085612068A8
:1028400000F580508569012000F086FA206800F5C7
:1028500080508561DDE90A0108430C9908430D9910
:1028600008430E9908430F9940EA810010990843E4
:1028700040F40001206800F580500160206800F5F8
:1028800080500568012000F067FA206800F580504C
:102890000560A069012809D1206800F58050C06951
:1028A00008490843216801F58051C861002120468C
:1028B0006269FFF7CDFE2EB070BD00000F8120FFD2
:1028C000233FDEF84000010038B5044600200090A8
:1028D0002068006820F00400216808602068006813
:1028E00000900120FFF77CFE00982168086038BD49
:1028F00038B50446002000902068006840F00400CD
:10290000216808602068006800900120FFF768FED9
:1029100000982168086038BD38B504460020009052
:102920002068006820F008002168086020680068BE
:1029300000900120FFF754FE00982168086038BD20
:1029400038B50446002000902068006840F0080078
:10295000216808602068006800900120FFF740FEB1
:1029600000982168086038BD10B5044606F0A6F945
:1029700000224FF480410C4801F0DCF8202006F0E2
:1029800091F9C4F3074006F08DF9C4F3072006F06F
:1029900089F9E0B206F086F901229103024801F0BC
:1029A000C9F806F057F910BD0004024010B506F052
:1029B00085F900224FF48041064801F0BBF8C7209A
:1029C00006F070F901229103024801F0B3F806F015
:1029D00041F910BD0004024072B600BFFEE730B5F9
:1029E00004460D4600222946204600F001F830BD7D
:1029F000F0B50346012500241148407A01281CDA6D
:102A000000200F4E767A0E4FB8553846467A001D94
:102A100040F82630001F467A083082553E46707ACC
:102A2000461C7E72044604F1300008703A2048705B
:102A30002F2088700020C87000252846F0BD0000B7
:102A4000603E002070B504461D460023B5F5804F5A
:102A500013D154F822300C480340D1E9000640EA73
:102A600006108E6840EA06208E8940EA06408E698C
:102A70003043034344F8223003E06FF0704044F8E1
:102A80002200002070BD00000000F0CF10B503460A
:102A90000022086853F8202012480240D1E90104BE
:102AA0002043CC6820430C6920434C6920438C6947
:102AB0002043CC6920430C6A20434C6A20438C6A33
:102AC0002043CC6A2043CC6B20430C6B2043024351
:102AD0008868082801D142F04002086843F82020A5
:102AE000002010BD8000F0FF30B503460024501CCC
:102AF00053F8204004F04044D1E9000540EA0510B5
:102B00008D6840EA05208D8940EA0545088A401E07
:102B100045EA0055087D801E45EA00608D6928431E
:102B20000443501C43F82040002030BD3EB504460D
:102B30000025064884716846FFF7C6FCC5B26423C9
:102B40002A466946024803F093F83EBD240000205F
:102B50007C0300202DE9F04704460D4616461F462B
:102B6000DDF820A03B4632462946204604F0CEFC44
:102B7000A04610E0A94607E04FF0D840A0F880A09A
:102B800009F101001FFA80F9E8194845F4DC08F161
:102B900001001FFA80F8A0194045EBDCBDE8F08782
:102BA0001FB5184818A1026802A8FDF73DFD02A94B
:102BB0001748006831F046FD1248008802B21548F7
:102BC00001681548006826F069FD1348006826F082
:102BD000E7FC0C4811A142686846FDF725FD6946EF
:102BE0001048006831F02EFD0648808802B20E4879
:102BF00001680E48006826F051FD0C48006826F078
:102C0000CFFC1FBDC00300202564A1E3000000002D
:102C10007402001060020020700200102564252557
:102C2000000000008802001044020010840200101E
:102C300070B504460D460448436804A10268204666
:102C4000FDF7F2FC70BD0000C00300207B2274651C
:102C50006D7065726174757265223A222564222C4A
:102C60002268756D6964697479223A222564222C80
:102C7000226C69676874223A2231303032312E3149
:102C8000227D000070B50446A56D00F059FF064690
:102C900094F83500022808D08020606500BF00202D
:102CA00084F8340000BF012070BD2068006820F067
:102CB0001600216808602068406920F080002168C3
:102CC0004861206C08B9A06C28B12068006820F029
:102CD0000800216808602068006820F00100216871
:102CE000086010E000F02CFF801B05280BD9202085
:102CF0006065032084F8350000BF002084F83400AC
:102D000000BF0320D0E72068006800F00100002821
:102D1000E8D194F85C103F208840A860012084F836
:102D2000350000BF002084F8340000BF00BFBBE7BF
:102D3000014691F83500022803D080204865012023
:102D40007047052081F835000868006820F0010010
:102D50000A6810600020F3E770B5044600F0F0FE4A
:102D600006462546681C10B104480078054400BF9B
:102D700000F0E6FE801BA842FAD370BD1C000010D4
:102D800070B505460C46002600BF95F845000128A1
:102D900001D1022070BD012085F8450000BF02204E
:102DA00085F84400002C6DD028680668434806402A
:102DB000D4E900010843A1680843E1680843A96811
:102DC00008432169084361690843E9680843A16928
:102DD0000843E1690843216A0843616A0843A16A1C
:102DE0000843064328680660286806680120FFF744
:102DF000B3FF28680660D4E90B010843616B084300
:102E0000A16B0843E16B0843216C0843616C0843E4
:102E1000A16C084329684860286846680120FFF7CC
:102E20009BFF28684660E06C29688860206D2968EF
:102E3000C860286886694FF641700640B4F854109F
:102E4000A06D40EA0140E16D0843216E0843616EC8
:102E50000843A16E0843064328688661286886698E
:102E60000120FFF779FF28688661D4E91B01084338
:102E70002968C8612868C6690120FFF76DFF2868C6
:102E8000C66110E02868066826F49046D5E902017C
:102E90000843064328680660286806680120FFF793
:102EA0005BFF28680660012085F8440000BF002011
:102EB00085F8450000BF00BF6CE700000F8120FFD0
:102EC00070B504460D461646002200BF94F8450032
:102ED000012801D1022070BD012084F8450000BF07
:102EE000022084F84400A56200221FE005EB421195
:102EF0004FF00040086044F2F4504860C2EBC2104A
:102F000000EB400006EB80008860A069012803D137
:102F1000486820F000404860581E904204D905EBF4
:102F200042102030C86000E0CD60521C9A42DDD3D0
:102F3000206800F58050C560012084F8440000BF7F
:102F4000002084F8450000BF00BFC4E770B5044608
:102F50000D461646002200BF94F84500012801D115
:102F6000022070BD012084F8450000BF022084F8D3
:102F70004400E56200221BE005EB42114FF4801093
:102F80000860C2EBC21000EB400006EB80008860D6
:102F9000E06918B9086840F440000860581E904283
:102FA00004D905EB42102030C86000E0CD60521C0F
:102FB0009A42E1D3206800F580500561012084F831
:102FC000440000BF002084F8450000BF00BFC8E7F0
:102FD00070470146002200BF91F84500012801D149
:102FE00002207047012081F8450000BF022081F8CF
:102FF00044003AE0521C886A006800F44070B0F562
:10300000007F07D1886A086301238B63886AC068E0
:1030100088622AE0886A006800F4407030B9886BE2
:10302000401C8863886AC06888621EE08B6A4B63B4
:10303000886B401C8863886B012801D1886A08630B
:10304000886A0068C0F30D40001FC863086B83687E
:103050000B64886AC0688862012081F8440000BF60
:10306000002081F8450000BFBBE7886A006800F0D7
:10307000004008B9042ABDD3012081F8440000BFF4
:10308000002081F8450000BF0120AAE710B50446E2
:10309000206800F58050406900F0400040280FD1C2
:1030A000204600F09BFA4021206800F580504161E5
:1030B000012084F8440000BF002084F8450016E099
:1030C000206800F58050406900F0010078B120468A
:1030D00000F07FFB0121206800F580504161012054
:1030E00084F8440000BF002084F8450000BF4FF47E
:1030F0008031206800F580504161206800F58050E3
:10310000406900F40040B0F5004F10D12046FFF7B1
:103110005FFF4FF40041206800F5805041610120BD
:1031200084F8440000BF002084F8450000BF10BDB3
:103130002DE9FC4104460025002001909D4E00270A
:10314000804614B90120BDE8FC8194F8440028B9F8
:10315000002084F84500204600F03AF900BF002026
:1031600000909548006840F4804093490860084604
:10317000006800F48040009000BF00BF8F480068E6
:1031800020F400008D49086008460068216A084361
:103190008A490860206800F58050006840F001010D
:1031A000206800F58050016000F0CAFC07460FE07F
:1031B00000F0C6FCC01BB0F5FA7F09D9032084F8E3
:1031C000440000BF002084F8450000BF0320BAE798
:1031D000206800F58050006800F001000028E7D169
:1031E0002068056925F01C0501F052FA064674486E
:1031F000864205D37348864202D245F008051AE09C
:103200007048864205D36B48864202D245F00C05D1
:1032100011E06848864203D36B48864200D20AE038
:103220006948864205D36948864202D245F00405C2
:1032300001E045F01005206805614FF400420021CF
:10324000204600F0C7FA48B14FF001084146204639
:10325000FFF718FA012084F8440074E7FF20FFF715
:103260007BFD6068002871D000F06AFC074600BF53
:1032700001AA0121204600F067F900F061FCC01BA3
:1032800041F2883188420FD94FF00108414620466B
:10329000FFF7F8F9012084F8440000BF002084F80B
:1032A000450000BF03204EE7019800F00400042809
:1032B000DED182020021204600F08CFA48B14FF0A6
:1032C000010841462046FFF7DDF9012084F844005B
:1032D00039E700F035FC074600BF01AA012120466E
:1032E00000F032F900F02CFCC01B41F2883188421A
:1032F0000FD94FF0010841462046FFF7C3F90120DE
:1033000084F8440000BF002084F8450000BF03207B
:1033100019E7019800F020002028DED101AA1F2122
:10332000204600F011F948B14FF00108414620460F
:10333000FFF7A8F9012084F8440004E7019800F0A1
:10334000100020B14FF40061E16002E00DE00021C7
:10335000E160019800F00400042802D10021A1607E
:103360001EE04FF48041A1601AE0E068C0F3CF0096
:10337000A168C1F34F0140EA01020021204600F09C
:1033800029FA48B14FF0010841462046FFF77AF983
:10339000012084F84400D6E640F6FF70FFF7DCFC1D
:1033A00041462046FFF76EF9012084F844000020D2
:1033B000C9E6000000879303443802400438014006
:1033C000002D3101C00E160200E1F50580D1F00894
:1033D00010B586B00446142101A8FDF71DFC544920
:1033E000206888427ED100BF00BF00200090514875
:1033F000006840F000704F4908600846006800F01F
:103400000070009000BF00BF00BF00200090084681
:10341000006840F0806008600846006800F0806046
:10342000009000BF00BF00BF002000900846006869
:1034300040F0006008600846006800F000600090FE
:1034400000BF00BF00BF00BF00200090084600681A
:1034500040F0040008600846006800F00400009096
:1034600000BF00BF00BF002000900846006840F089
:10347000010008600846006800F00100009000BFED
:1034800000BF00BF002000900846006840F04000E8
:1034900008600846006800F04000009000BF00BFD0
:1034A000322001900220029000200390032004901B
:1034B0000B20059001A9204800F03CFA86200190DD
:1034C0000220029000200390032004900B2005901E
:1034D00001A91A4800F02EFA4FF4D04001900220C2
:1034E000029000E021E000200390032004900B20D4
:1034F000059001A9124800F01DFA002205213D2087
:1035000000F090FF3D2000F07DFF002208210D48D3
:1035100000F010FB3220FFF71FFC012208210948B0
:1035200000F008FB3220FFF717FC06B010BD0000CA
:103530000080024030380240000802400000024093
:1035400000180240000C02402DE9F04104460E46EE
:1035500017460025A84694F84400822802D102208C
:10356000BDE8F081822084F844002068056905F0F8
:103570001C05208A4FF4784101EAC0200543481118
:1035800000EA8610054325F0020545F00105206894
:10359000056100F0D5FA804612E000F0D1FAA0EB08
:1035A0000800B0F5803F09D3012084F8440000BF33
:1035B000002084F8450000BF0320D1E7206805699A
:1035C00005F001000028E8D12068406980B2386029
:1035D000012084F844000020C2E7000010B5044632
:1035E0000248006842F03AFF10BD0000C000001021
:1035F00010B5044600BF94F84500012801D102200F
:1036000010BD012084F8450000BF022084F844006A
:103610002046FFF795F92046FFF76AF92046FEF7A6
:10362000F3FF2046FEF7D1FF2046FEF7B8FF01204A
:1036300084F8440000BF002084F8450000BF00BFAC
:10364000DEE710B5044600BF94F84500012801D11B
:10365000022010BD012084F8450000BF022084F83C
:1036600044002046FEF7A6FF2046FEF78DFF2046C9
:10367000FFF72AF92046FEF7C7FF2046FFF74CF96F
:10368000012084F8440000BF002084F8450000BFFA
:1036900000BFDEE770B5024600230025002400BF0E
:1036A00092F84500012801D1022070BD012082F866
:1036B000450000BF022082F8440049B9012082F889
:1036C000440000BF002082F8450000BF0120ECE765
:1036D000D06A006800F0004048B1122082F844002F
:1036E00000BF002082F8450000BF0120DDE740F266
:1036F000F450814208D9B1FBF0F3B1FBF0F600FBC6
:10370000161010B15B1C00E00123012B13D1D06A0D
:10371000006840F04050D66A3060C1F30C00D66AB1
:103720007060D06A006840F00040D66A3060D06AAD
:10373000C068D06232E000242EE0D06A006820F039
:103740004050D66A30602CB9D06A006840F0805092
:10375000D66A306040F2F450D66A7060581EA042BB
:1037600010D1D06A006840F00050D66A3060581E10
:10377000C0EBC01000EB4000A1EB8005C5F30C00CE
:10378000D66A7060D06A006840F00040D66A306047
:10379000D06AC068D062641C9C42CED3106800F529
:1037A0008050406900F0040048B10426106800F51C
:1037B000805046610026106800F580504660012068
:1037C00082F8440000BF002082F8450000BF00BF1F
:1037D0006BE770472DE9F04104460E461746002579
:1037E000A84694F84400422802D10220BDE8F081A6
:1037F000422084F844002068056905F01C05208AF1
:103800004FF4784101EAC0200543481100EA8610D0
:10381000054345F0020545F00105B8B2216848614D
:103820002068056100F08CF9804612E000F088F90C
:10383000A0EB0800B0F5803F09D3012084F84400D4
:1038400000BF002084F8450000BF0320CEE72068B9
:10385000056905F001000028E8D1012084F8440042
:103860000020C3E700B587B0142102A8FDF7D4F902
:103870002A48006808B107B000BD01202749086048
:1038800000BF002001902648006840F00100244954
:1038900008600846006800F00100019000BF00BF0A
:1038A00088140290022003900020049003200590C9
:1038B0000C20069002A91B4800F03CF84FF68070DF
:1038C00002900220039000200490032005900C2019
:1038D000069002A9144800F02DF84CF233700290C3
:1038E0000220039000200490032005900C200690F5
:1038F00002A90E4800F01EF84FF4805002900220FA
:10390000039000200490032005900C20069002A94B
:10391000074800F00FF800BFADE700000C000010F2
:10392000383802400014024000100240000C0240EF
:1039300000180240F8B502460B460025002400207E
:103940000021D5E0012606FA01F51E6806EA050405
:10395000AC4274D11E7906F00306012E04D01E7904
:1039600006F00306022E13D190684F000326BE40D6
:10397000B0434F00DE68BE4030439060506801267F
:103980008E40B0431E79C6F300168E40304350601F
:103990001E7906F00306032E09D0D0684F000326D7
:1039A000BE40B0434F009E68BE403043D0601E7999
:1039B00006F00306022E13D1CF0802F1200656F8B6
:1039C00027004E07F70E0F26BE40B0434F07FF0EED
:1039D0001E69BE403043CF0802F1200646F827009A
:1039E00010684F000326BE40B0431E7906F0030660
:1039F0004F00BE40304310605E6806F44036002E33
:103A000075D000BF002600963B4E366846F48046CF
:103A1000394F3E603E46366806F48046009600BF49
:103A200000BF364E8F0856F827008E07370F0F2637
:103A3000BE40B043324EB24202D1002624E056E0EE
:103A4000304EB24201D101261EE02F4EB24201D1CA
:103A5000022619E02D4EB24201D1032614E02C4E6D
:103A6000B24201D104260FE02A4EB24201D105260E
:103A70000AE0294EB24201D1062605E0274EB242A5
:103A800001D1072600E008268F073F0FBE403043D4
:103A90001A4E8F0846F82700214E3068A0435E6812
:103AA00006F4803606B120431D4E3060361D306866
:103AB000A0435E6806F4003606B12043184E361D5A
:103AC0003060361D3068A0435E6806F4801606B18B
:103AD0002043134E08363060361D3068A0435E68C0
:103AE00006F4001606B120430D4E0C363060491C1A
:103AF0001029FFF427AFF8BD4438024008380140D0
:103B0000000002400004024000080240000C024095
:103B1000001002400014024000180240001C024045
:103B2000003C0140024613690B400BB1012000E04C
:103B3000002070470AB1816101E00B048361704786
:103B400001480068704700001400001010B50446DA
:103B5000D4F8000306F09DFF10BD10B50446D4F85C
:103B6000000306F0ACFF10BD10B50446206809F054
:103B700009F810BD10B50446206809F00AF810BD18
:103B8000024601EB410000EBC10302F1380000EBFB
:103B9000830090F828007047024601EB410000EBDB
:103BA000C10302F1380000EB83008069704770B5F3
:103BB00004460D46002600BF94F8F802012801D102
:103BC000022070BD012084F8F80200BF2946206859
:103BD00008F0F0FF00BF002084F8F80200BF304674
:103BE000EFE72DE9FE4F04460D4616461F46DDE978
:103BF0000D9ADDF8308000BF94F8F802012802D158
:103C00000220BDE8FE8F012084F8F80200BF0021E9
:103C100005EB450000EBC50204F1380000EB820023
:103C2000417105EB450000EBC50104F1380000F8D7
:103C3000217005EB450000EBC50104F1380000EBF5
:103C40008100A0F808A005EB450000EBC50104F1D8
:103C5000380000EB8100457005EB450000EBC50125
:103C600004F1380000EB810080F8079006F07F0136
:103C700005EB450000EBC50204F1380000EB8200C3
:103C8000817006F0800080280AD1012105EB4500F3
:103C900000EBC50204F1380000EB8200C17009E0BE
:103CA000002105EB450000EBC50204F1380000EBF4
:103CB0008200C17005EB450000EBC50104F138003E
:103CC00000EB810080F804808DE800073B46324617
:103CD0002946206809F046F8834600BF002084F892
:103CE000F80200BF58468CE770B504460D461646EC
:103CF000D4F8000306F096FF70BD2DE9F05F04468E
:103D00000D4616461F46DDE90C9BDDE90A8A05EBE8
:103D1000450000EBC50104F1380000EB8100C670DE
:103D200005EB450000EBC50104F1380000EB810014
:103D3000C771B8F1000F14D1032105EB450000EB6A
:103D4000C50204F1380000EB8200817205EB4500EA
:103D500000EBC50104F1380000EB810080F805B0EC
:103D600009E0022105EB450000EBC50204F1380033
:103D700000EB8200817237B1012F76D0022F33D051
:103D8000032F73D173E0B8F1010F2CD106BBB9F149
:103D9000000F09D1012105EB450000EBC50204F13C
:103DA000380000EB8200417705EB450000EBC501D0
:103DB00004F1380000EB8100407F50B9002105EB91
:103DC000450000EBC50204F1380000EB820081726F
:103DD00009E0022105EB450000EBC50204F13800C3
:103DE00000EB820081728FE0FEB905EB450000EB2D
:103DF000C50104F1380000EB8100407F50B900217B
:103E000005EB450000EBC50204F1380000EB820031
:103E1000817229E0022105EB450000EBC50204F1A7
:103E2000380000EB820081721EE005EB450000EBDC
:103E3000C50104F1380000EB8100007F50B900217A
:103E400005EB450000EBC50204F1380000EB8200F1
:103E5000817209E0022105EB450000EBC50204F187
:103E6000380000EB820081724EE041E04BE0FEB989
:103E700005EB450000EBC50104F1380000EB8100C3
:103E8000407F50B9002105EB450000EBC50204F16D
:103E9000380000EB8200817229E0022105EB450029
:103EA00000EBC50204F1380000EB820081721EE0D5
:103EB00005EB450000EBC50104F1380000EB810083
:103EC000007F50B9002105EB450000EBC50204F16D
:103ED000380000EB8200817209E0022105EB450009
:103EE00000EBC50204F1380000EB820081720BE0A8
:103EF000002105EB450000EBC50204F1380000EBA2
:103F00008200817200E000BF00BF05EB450000EBBE
:103F1000C50104F1380000EB8100C0F80CA005EBEE
:103F2000450000EBC50104F1380000EB8100C0F84A
:103F30001490002105EB450000EBC50204F13800A8
:103F400000EB820080F8281005EB450000EBC5026D
:103F500004F1380000EB8200816105EB450000EBC5
:103F6000C50104F1380000EB81004570002105EB2C
:103F7000450000EBC50204F1380000EB820080F838
:103F80002910227C05EB450303EBC50C04F1380333
:103F900003EB8C01206808F0BFFFBDE8F09F2DE91E
:103FA000F04104462768B846206808F0FEFD012865
:103FB0007DD1206809F032F908B9BDE8F0812068A8
:103FC00009F02CF900F40010B0F5001F03D14FF4F4
:103FD000001021684861206809F020F900F4801081
:103FE000B0F5801F03D14FF480102168486120682C
:103FF00009F014F900F08060B0F1806F03D14FF048
:10400000806021684861206809F008F900F002002A
:10401000022801D121684861206809F0FFF800F00A
:104020000050B0F1005F16D14FF000502168486198
:10403000D8F8400400F0010068B91021384608F0B3
:1040400087FD384608F06CFD0121206809F0C4F8AE
:104050002046FFF782FD206809F0E0F800F080704C
:10406000B0F1807F02D1204602F0C0FD206809F047
:10407000D5F800F00800082805D1204600F0EEF839
:10408000082021684861206809F0C8F8C0F30010D2
:1040900080B12068806920F0100021688861204686
:1040A00002F0FFFD2068806940F0100000E030E081
:1040B00021688861206809F0B1F800F00070B0F163
:1040C000007F26D1206808F01FFF0646002519E072
:1040D00005F00F0101208840304090B108F5A06044
:1040E00000EB4510006800F40040B0F5004F04D12B
:1040F000E9B2204601F026FE03E0E9B2204602F0D4
:10410000D2F96D1CA068A842E2D84FF00070216877
:10411000486100BF51E730B58BB0044614B90120A7
:104120000BB030BD256894F8F90228B9002084F856
:10413000F802204600F02AF8032084F8F902E86B20
:1041400000F4807008B900212161206808F092FC19
:10415000282204F110016846FCF70AFD94E80F00DC
:1041600008F01CFC0121206809F0ABF8282204F1BA
:1041700010016846FCF7FCFC94E80F0008F0B4FF5F
:10418000012084F8F9020020CAE7000010B586B0CB
:104190000446142101A8FCF73FFD2068B0F1A04FB0
:1041A00042D100BF002000902048006840F001008C
:1041B0001E4908600846006800F00100009000BF3A
:1041C00000BF4FF4C05001900220029000200390E5
:1041D000032004900A20059001A91548FFF7AAFBC7
:1041E00000BF1248001D006840F080000F49091D03
:1041F000086000BF002000900C481430006840F4B4
:1042000080400A49143108600846006800F4804084
:10421000009000BF00BF00BF00220521432000F036
:1042200001F9432000F0EEF806B010BD303802402E
:104230000000024010B50446D4F8000306F020FD4B
:1042400010BD10B50446D4F8000306F01DFD10BDE6
:1042500010B50446206809F016F810BD10B50446E4
:10426000D4F8000306F0A6FC10BD10B5044600BF4C
:1042700094F8F802012801D1022010BD012084F831
:10428000F80200BF0121206808F01EFC206808F039
:1042900040FC00BF002084F8F80200BF00BFECE73C
:1042A00010B5044600BF94F8F802012801D102209D
:1042B00010BD012084F8F80200BF206809F035F82D
:1042C00000BF002084F8F80200BF00BFF0E7000044
:1042D00003480068034909780844014908607047A9
:1042E000140000101C00001010B50D48006840F4C8
:1042F00000700B4908600846006840F48060086060
:104300000846006840F480700860032000F0C8F898
:104310000F2000F007F800F04BF8002010BD00005F
:10432000003C024070B588B00446002500260022FB
:104330002146192000F076F8192000F063F800BF3C
:10434000002001901648006840F001001449086000
:104350000846006800F00100019000BF00BF02A9FC
:1043600003A800F073F900F0A9F905460D48B5FB64
:10437000F0F0461E0C480D49086040F2E7310B484A
:10438000C160466000210161816001F027F820B919
:10439000064801F07BF808B070BD0120FBE7000083
:1043A0004438024040420F000000014084050010E4
:1043B00008B500BF002000901148006840F480401C
:1043C0000F4908600846006800F48040009000BF74
:1043D00000BF00BF00200090081F006840F0805020
:1043E000091F08600846006800F08050009000BF78
:1043F00000BF00220F21901E00F014F808BD00003D
:104400004438024001460846002809DB00F01F033B
:1044100001229A4043099B0003F1E023C3F80021E5
:1044200000BF70472DE9F05F80460D461646002715
:1044300009F028F9074639462A46334601F00700B5
:10444000C0F1070ABAF1040F02D94FF0040A01E0E3
:10445000C0F1070AD14600F1040ABAF1070F02D2EF
:104460004FF0000A01E0A0F1030AD4464FF0010A20
:104470000AFA09FAAAF1010A0AEA020A0AFA0CFA85
:104480004FF0010B0BFA0CFBABF1010B0BEA030B2A
:104490004AEA0B042146404609F0FCF8BDE8F09FCB
:1044A00000BF00F00702064B19684FF6FF031940E2
:1044B000044B0B4343EA0221014B196000BF7047D4
:1044C0000CED00E00000FA0570B504460D460CB98D
:1044D000012070BD5848006800F00700A84209D2CA
:1044E00055490D700846006800F00700A84201D049
:1044F0000120EEE7207800F0020002281DD120788C
:1045000000F00400042805D14C48006840F4E05055
:104510004A490860207800F00800082805D147487B
:10452000006840F46040454908604448006820F055
:10453000F000A168084341490860207800F00100BC
:10454000A8B36068012807D13C4808380068C0F368
:104550004040B8B90120BCE76068022802D060681A
:10456000032807D1354808380068C0F3406048B9CF
:104570000120AEE7314808380068C0F3400008B9B0
:104580000120A6E72D48006820F003006168084379
:104590002A490860FFF7D4FA064609E0FFF7D0FA87
:1045A000801B41F28831884202D9032091E707E05D
:1045B0002248006800F00C006168B0EB810FEDD17B
:1045C0001D48006800F00700A84209D91A490D707B
:1045D0000846006800F00700A84201D0012078E7F3
:1045E000207800F00400042807D11448006820F463
:1045F000E050E168084311490860207800F00800A5
:10460000082808D10D48006820F46040216940EA7C
:10461000C1000A49086000F061F808490968C1F35F
:104620000311074A515CC840064908600648006803
:10463000FFF778FE00204CE7003C024008380240BB
:1046400064A1050820000010180000100F2202606D
:104650000D4A126802F0030242600B4A126802F02F
:10466000F0028260084A126802F4E052C260064A10
:10467000126802F46042D2080261044A126802F031
:1046800007020A607047000008380240003C024000
:1046900001480068704700002000001000B5FFF7D7
:1046A000F7FF04490968C1F38221034A515CC840FD
:1046B00000BD00000838024074A1050800B5FFF7EE
:1046C000E7FF04490968C1F34231034A515CC8401D
:1046D00000BD00000838024074A105082DE9F0472C
:1046E000002400250026A1462548006800F00C00A3
:1046F00020B1042805D008283AD105E0DFF88490DD
:1047000039E0DFF8849036E01D48001F006800F0B3
:104710003F041B48001F006800F4800078B11A486D
:104720001749091F0968C1F38811A0FB01700146F0
:10473000224600233846FBF7EDFE05460EE0114801
:104740000F49091F0968C1F38811A0FB01700146D8
:10475000224600233846FBF7DDFE05460848001FC9
:104760000068C0F30140401C4600B5FBF6F902E0CA
:10477000DFF8109000BF00BF4846BDE8F08700009A
:10478000083802400024F40000127A00F8B504460C
:104790000CB90120F8BD207800F00100002874D089
:1047A000F948006800F00C0004280DD0F6480068B5
:1047B00000F00C00082813D1F348001F006800F433
:1047C0008000B0F5800F0BD1EF4808380068C0F3C7
:1047D0004040002859D06068002856D10120D9E710
:1047E00000BF6068B0F5803F08D1E748083800682E
:1047F00040F48030E449083908601EE06068B0F594
:10480000A02F0DD1E0480838006840F48020DE4930
:10481000083908600846006840F4803008600CE001
:10482000D9480838006820F48030D7490839086032
:104830000846006820F48020086000BF606890B1DE
:10484000FFF77EF9054606E0FFF77AF9401B64287A
:1048500001D903209EE7CC4808380068C0F34040E7
:104860000028F1D011E0FFF76BF9054606E0FFF7ED
:1048700067F9401B642801D903208BE7C248083838
:104880000068C0F340400028F1D1207800F0020019
:1048900002285FD1BC48006800F00C0058B1BA484B
:1048A000006800F00C0008281CD1B748001F006801
:1048B00000F48000B0B9B44808380068C0F3400084
:1048C00020B1E068012801D0012063E7AE48083834
:1048D000006820F0F800216940EAC100AA490839BF
:1048E000086037E0E06800B30120A8490860FFF7DE
:1048F00027F9054606E0FFF723F9401B022801D9F6
:10490000032047E7A04808380068C0F340000028AB
:10491000F1D09D480838006820F0F800216940EA8D
:10492000C10099490839086014E0002097490860DF
:10493000FFF706F9054606E0FFF702F9401B0228DB
:1049400001D9032026E7904808380068C0F34000EA
:104950000028F1D1207800F0080008282CD16069E7
:10496000A8B101208A490860FFF7EAF8054606E089
:10497000FFF7E6F8401B022801D903200AE7824826
:104980006C300068C0F340000028F1D014E0002033
:104990007F490860FFF7D4F8054606E0FFF7D0F836
:1049A000401B022801D90320F4E677486C300068E8
:1049B000C0F340000028F1D1207800F00400042862
:1049C00070D1002770483830006800F0805090B9EE
:1049D00000BF002000906C483830006840F08050E4
:1049E0006949383108600846006800F0805000903E
:1049F00000BF00BF01276748006800F48070B0B9AD
:104A00006448006840F4807062490860FFF798F8D5
:104A1000054606E0FFF794F8401B022801D9032061
:104A2000B8E65C48006800F480700028F2D000BF4F
:104A3000A068012808D154486830006840F001009F
:104A40005149683108601DE0A06805280DD14E4825
:104A50006830006840F004004B496831086008463F
:104A6000006840F0010008600CE0474868300068CA
:104A700020F001004449683108600846006820F0D1
:104A80000400086000BFA068A8B1FFF759F8054608
:104A900009E0FFF755F8401B41F28831884202D9FE
:104AA000032077E626E0384868300068C0F340000D
:104AB0000028EED013E0FFF743F8054608E0FFF7C3
:104AC0003FF8401B41F28831884201D9032061E65A
:104AD0002D4868300068C0F340000028EFD1012F56
:104AE00007D129483830006820F0805026493831F5
:104AF000086000BFA069002845D02348006800F086
:104B00000C0008285DD0A069022845D100201F496B
:104B10000866FFF715F8054606E0FFF711F8401B99
:104B2000022801D9032035E6174808380068C0F389
:104B300040600028F1D1D4E907010843616A40EAE6
:104B400081110122A06AC2EB500041EA00412C20F1
:104B5000005D41EA00600C49091F086001200B4913
:104B60000866FEF7EDFF054606E0FEF7E9FF401B8D
:104B7000022801D903200DE6034808380068C0F375
:104B800040600028F1D049E0083802400000474268
:104B9000800E474200700040002021490866FEF761
:104BA000CFFF054606E0FEF7CBFF401B022801D9E8
:104BB0000320EFE51B480068C0F340600028F2D1F5
:104BC0002CE0A069012800D1E4E51648001D066824
:104BD000A069012820D006F48001E06981421BD140
:104BE00006F03F01206A814216D147F6C07030407E
:104BF000616AB0EB811F0FD106F440310122A06A37
:104C0000C2EB5000B1EB004F06D106F070612C20D2
:104C1000005DB1EB006F01D00120BBE50020B9E5DC
:104C2000000047420038024010B504460CB901208C
:104C300010BD606A38B96068B0F5827F00D105E0C8
:104C40000021E16102E00021216161610021A16296
:104C500094F8510028B9002084F85000204600F054
:104C600047F8022084F851002068006820F04000D6
:104C700021680860A08800F48270218901F4044151
:104C80000843A18901F400610843217C01F002017D
:104C90000843217D01F001010843218B01F40071DB
:104CA0000843217F01F0380108432021095D01F00C
:104CB00080010843218D01F40051084321680860F8
:104CC0000421A06901EA104094F8241001F01001B9
:104CD0000843216848602068C06920F400602168AA
:104CE000C86100206065012084F8510000209FE722
:104CF00010B586B00446142101A8FBF78DFF1B49AF
:104D0000206888422FD100BF00200090184800681A
:104D100040F48050164908600846006800F480504E
:104D2000009000BF00BF00BF002000901048143862
:104D3000006840F002000E49143908600846006817
:104D400000F00200009000BF00BF38200190022058
:104D5000029000200390032004900520059001A9F3
:104D60000448FEF7E7FD06B010BD0000003001402A
:104D700044380240000402402DE9F84304468846C6
:104D800016461D464FF000096068B0F5827F0DD1D0
:104D9000A06858B9042084F8510033464246414681
:104DA0002046009500F077F9BDE8F88300BF94F83D
:104DB0005000012801D10220F6E7012084F85000BC
:104DC00000BFFEF7BDFE074694F85100012802D04F
:104DD0004FF002097EE0B8F1000F00D016B94FF095
:104DE000010977E0042084F8510000206065C4F8D0
:104DF0003880A687E6872063A086E086206460640A
:104E0000A068B0F5004F0BD12068006820F040008A
:104E1000216808602068006820F4804021680860EC
:104E20002068006800F04000402805D02068006835
:104E300040F0400021680860E068F8B91AE0206896
:104E4000806800F0010050B12068007BA16B087001
:104E5000A06B401CA063E08F401EE0870AE0FEF7D5
:104E60006FFEC01BA84201D3681C00B915B94FF0F2
:104E700003092FE0E08F0028E1D11EE01AE020684E
:104E8000806800F0010050B12068C068A16B088004
:104E9000A06B801CA063E08F401EE0870AE0FEF755
:104EA0004FFEC01BA84201D3681C00B915B94FF0D2
:104EB00003090FE0E08F0028E1D13A462946204659
:104EC00003F038FE08B120206065606D08B14FF036
:104ED000010900BF012084F8510000BF002084F8C0
:104EE000500000BF48465FE72DE9F84F044688466A
:104EF00016461D464FF0000A00BF94F850000128E6
:104F000002D10220BDE8F88F012084F8500000BFD4
:104F1000FEF716FE0746B14694F85100012802D06C
:104F20004FF0020AADE0B8F1000F00D016B94FF013
:104F3000010AA6E0032084F8510000206065C4F84F
:104F40003080A686E686A063A087E0876064206440
:104F5000A068B0F5004F0BD12068006820F0400039
:104F6000216808602068006840F48040216808607B
:104F70002068006800F04000402805D020680068E4
:104F800040F0400021680860E068B0F5006F2FD164
:104F9000606810B1B9F1010F09D1206B0088216858
:104FA000C860206B801C2063E08E401EE0861BE002
:104FB0002068806800F0020002280AD1206B008877
:104FC0002168C860206B801C2063E08E401EE08654
:104FD0000AE0FEF7B5FDC01BA84201D3681C00B96A
:104FE00015B94FF0030A4CE0E08E0028E0D12EE026
:104FF000606810B1B9F1010F09D1206B0078216808
:105000000873206B401C2063E08E401EE0861BE08E
:105010002068806800F0020002280AD1206B007826
:1050200021680873206B401C2063E08E401EE086E0
:105030000AE0FEF785FDC01BA84201D3681C00B939
:1050400015B94FF0030A1CE0E08E0028E0D13A4683
:105050002946204603F0B8FD08B120206065A0680D
:1050600050B900BF002000902068C0680090206800
:105070008068009000BF00BF606D08B14FF0010A6A
:1050800000BF012084F8510000BF002084F85000C8
:1050900000BF504636E72DE9FF5F0446884691463B
:1050A0001D460E9E012002900020019000BF94F842
:1050B0005000012803D1022004B0BDE8F09F012078
:1050C00084F8500000BFFEF73BFD074694F851B04E
:1050D00060680390AA46BBF1010F0BD00398B0F5AE
:1050E000827F04D1A06810B9BBF1040F02D0022066
:1050F0000190DBE0B8F1000F03D0B9F1000F00D050
:1051000015B901200190D1E094F85100042802D093
:10511000052084F8510000206065C4F83890E587C8
:10512000A587C4F83080E586A58620646064206881
:10513000006800F04000402805D02068006840F07A
:10514000400021680860E068B0F5006F4AD16068EF
:1051500010B1BAF1010F09D1206B00882168C86035
:10516000206B801C2063E08E401EE08633E02068C8
:10517000806800F00200022810D1E08E70B1029821
:1051800001280BD1206B00882168C860206B801C2F
:105190002063E08E401EE086002002902068806838
:1051A00000F0010068B1E08F58B12068C068A16BC1
:1051B0000880A06B801CA063E08F401EE087012068
:1051C0000290FEF7BDFCC01BB04204D3701C10B1AE
:1051D000032001906AE0E08E0028C8D1E08F00280B
:1051E000C5D14AE0606810B1BAF1010F09D1206B56
:1051F000007821680873206B401C2063E08E401EFD
:10520000E08634E02068806800F00200022810D1B7
:10521000E08E70B1029801280BD1206B00782168D4
:105220000873206B401C2063E08E401EE086002047
:1052300002902068806800F0010068B1E08F58B1EA
:105240002068C068A16B0870A06B401CA063E08F51
:10525000401EE08701200290FEF772FCC01BB042A6
:1052600001D3701C00B916B9032001901EE0E08E36
:105270000028C7D1E08F0028C4D13A4631462046E5
:1052800003F0A2FC20B101200190202060650DE018
:10529000A06850B900BF002000902068C06800904E
:1052A00020688068009000BF00BF00BF012084F824
:1052B000510000BF002084F8500000BF0198FBE6B9
:1052C00070B504460E4615460CB9012070BD94F821
:1052D000490028B9002084F84800204600F01CF856
:1052E00004F108012068FDF7D1FB3146A26820686F
:1052F000FDF7FAFB2946236BD4E90102FDF7A2FB77
:10530000A168206850F8210040F00100A2682168DF
:1053100041F822000020D9E710B50446FEF7A2FAB2
:1053200010BD70477047000030B502460B4600BF05
:1053300092F83C00012801D1022030BD012082F802
:105340003C0000BF022082F83D00106844681068ED
:10535000816824F070041868044310684460184D94
:105360001068A8421BD01068B0F1804F17D0154DBF
:105370001068A84213D0144D1068A8420FD0134DE6
:105380001068A8420BD0124D1068A84207D0114DEA
:105390001068A84203D0104D1068A84205D121F032
:1053A00080015868014310688160012082F83D0047
:1053B00000BF002082F83C0000BF00BFBDE7000036
:1053C000000001400004004000080040000C0040C4
:1053D00000040140004001400018004010B50446A0
:1053E0000CB9012010BD94F83D0028B9002084F8C4
:1053F0003C00204600F026F8022084F83D00211DE4
:10540000206803F0C3FE012084F8460000BF84F842
:105410003E0001213F20015540200155412001550A
:1054200000BF00BF012084F8420043200155442002
:1054300001554520015500BF012084F83D000020A2
:10544000D0E7000038B504460E492068884217D1DD
:1054500000BF002000900C48006840F010000A498E
:1054600008600846006800F01000009000BF00BF10
:10547000002205213620FEF7D5FF3620FEF7C2FFB9
:1054800038BD00000010004040380240014691F84D
:105490003D00012801D001207047022081F83D0025
:1054A0000868C06840F001000B68D8601A4B0868B3
:1054B00098421BD00868B0F1804F17D0174B08688E
:1054C000984213D0164B086898420FD0154B0868C5
:1054D00098420BD0144B0868984207D0134B0868C9
:1054E000984203D0124B086898420CD10868806833
:1054F00000F00702062A0CD00868006840F001009E
:105500000B68186005E00868006840F001000B684F
:1055100018600020C0E700000000014000040040C7
:1055200000080040000C0040000401400040014021
:1055300000180040704710B5044620680069C0F3A9
:105540004000D8B12068C068C0F34000B0B16FF02F
:10555000020021680861012020772068806900F03E
:10556000030018B12046FFF7E5FF05E0204600F0F4
:10557000ADF8204600F0ABF80020207720680069E5
:10558000C0F38000D8B12068C068C0F38000B0B11B
:105590006FF004002168086102202077206880698C
:1055A00000F4407018B12046FFF7C4FF05E0204624
:1055B00000F08CF8204600F08AF800202077206860
:1055C0000069C0F3C000D8B12068C068C0F3C00053
:1055D000B0B16FF0080021680861042020772068CE
:1055E000C06900F0030018B12046FFF7A3FF05E0F3
:1055F000204600F06BF8204600F069F80020207784
:1056000020680069C0F30010D8B12068C068C0F3FA
:105610000010B0B16FF010002168086108202077F9
:105620002068C06900F4407018B12046FFF782FF7F
:1056300005E0204600F04AF8204600F048F8002037
:1056400020772068006900F0010058B12068C06828
:1056500000F0010030B16FF00100216808612046C0
:1056600000F036F820680069C0F3C01058B1206817
:10567000C068C0F3C01030B16FF0800021680861CD
:105680002046FFF74EFE20680069C0F3801058B135
:105690002068C068C0F3801030B16FF0400021680E
:1056A0000861204600F064F820680069C0F34010EB
:1056B00058B12068C068C0F3401030B16FF02000CE
:1056C000216808612046FFF72DFE10BD7047704726
:1056D00010B5044620492068884201D1FEF7F8FD44
:1056E0001E48844237D11E480088401C1C4908804F
:1056F0001C484088401C1B4948800846C088401C04
:10570000C88008468088401C888017488088401CD4
:10571000154988801548C088401C1449C88008462F
:10572000C088282190FBF1F201FB120098B90F48C4
:10573000007980B100210D480089C0F30E020B48AA
:105740000B3081540B38008940F400400749088130
:1057500000200871C88010BD00000140F002002048
:1057600054000010480000109C000010CC050010F0
:1057700070477047704700002DE9F84F04462068D5
:1057800005682068C668206847694FF00009CA4666
:1057900005F00F09B9F1000F0AD105F0200038B16A
:1057A00006F0200020B1204604F006FABDE8F88F8C
:1057B000B9F1000F7CD007F0010018B906F4907021
:1057C000002875D005F0010030B106F4807018B1E2
:1057D000206C40F00100206405F0040030B107F0B7
:1057E000010018B1206C40F00200206405F00200B6
:1057F00030B107F0010018B1206C40F004002064C3
:1058000005F0080048B106F0200010B907F00100CB
:1058100018B1206C40F008002064206C002846D0AD
:1058200005F0200028B106F0200010B1204604F059
:10583000C3F920684069C0F3801A206C00F00800AA
:1058400010B9BAF1000F2DD0204604F06FF920688E
:10585000406900F04000402820D100BF00BF21680F
:10586000143151E8001F21F040002168143141E853
:105870000002002AF3D100BFA06B50B17548A16BA4
:105880000865A06BFDF754FA88B1A06B016D8847DD
:105890000DE02046FFF76EFF09E009E02046FFF724
:1058A00069FF04E02046FFF765FF002020647DE7E4
:1058B000206B012876D105F01000002872D006F088
:1058C00010000028FAD000BF002000902068006877
:1058D000009020684068009000BF00BF20684069C9
:1058E00000F0400040285ED1A06B006840681FFABD
:1058F00080F8B8F1000F54D0A08D404551DDA4F8D8
:105900002E80A06BC069B0F5807F43D000BF00BF80
:1059100021680C3151E8001F21F4807021680C319E
:1059200041E80002002AF3D100BF00BF00BF216898
:10593000143151E8001F21F001002168143141E8C1
:105940000002002AF3D100BF00BF00BF216814315C
:1059500051E8001F21F040002168143141E80002A5
:10596000002AF3D100BF202084F83E0000202063ED
:1059700000BF00BF21680C3151E8001F21F010006A
:1059800021680C3141E80002002AF3D100BFA06B6E
:10599000FDF778F9A08DE28D801A81B22046FFF7DD
:1059A000E8FE03E740E0A08DE18D401A1FFA80F881
:1059B000E08DC0B3B8F1000F35D000BF00BF216843
:1059C0000C3151E8001F21F4907021680C3141E83E
:1059D0000002002AF3D100BF00BF00BF21681431CC
:1059E00051E8001F21F001002168143141E8000254
:1059F000002AF3D100BF202084F83E00002020635D
:105A000000BF00BF21680C3151E8001F21F01000D9
:105A100021680C3141E80002002AF3D100BF414661
:105A20002046FFF7A6FEC1E605F0800030B106F083
:105A3000800018B1204604F074FAB7E605F0400083
:105A400030B106F0400018B1204604F0A5F8ADE6EC
:105A500000BFABE6199B000810B504460CB9012045
:105A600010BDA06900B100E000BF94F83D0028B966
:105A7000002084F83C00204600F028F8242084F818
:105A80003D002068C06820F400502168C8602046AE
:105A900004F00EF92068006920F490402168086144
:105AA0002068406920F02A00216848612068C068A9
:105AB00040F400502168C86000202064202084F851
:105AC0003D0084F83E000020CAE7000010B586B013
:105AD0000446142101A8FBF79FF83A492068884240
